{
  "contractName": "Ownable",
  "abi": [
    {
      "inputs": [],
      "stateMutability": "nonpayable",
      "type": "constructor"
    },
    {
      "anonymous": false,
      "inputs": [
        {
          "indexed": true,
          "internalType": "address",
          "name": "oldOwner",
          "type": "address"
        },
        {
          "indexed": true,
          "internalType": "address",
          "name": "newOwner",
          "type": "address"
        }
      ],
      "name": "TransferOwnership",
      "type": "event"
    },
    {
      "inputs": [],
      "name": "owner",
      "outputs": [
        {
          "internalType": "address",
          "name": "",
          "type": "address"
        }
      ],
      "stateMutability": "view",
      "type": "function"
    },
    {
      "inputs": [],
      "name": "isOwner",
      "outputs": [
        {
          "internalType": "bool",
          "name": "",
          "type": "bool"
        }
      ],
      "stateMutability": "view",
      "type": "function"
    },
    {
      "inputs": [],
      "name": "renounceOwnership",
      "outputs": [],
      "stateMutability": "nonpayable",
      "type": "function"
    },
    {
      "inputs": [
        {
          "internalType": "address",
          "name": "newOwner",
          "type": "address"
        }
      ],
      "name": "transferOwnership",
      "outputs": [],
      "stateMutability": "nonpayable",
      "type": "function"
    }
  ],
  "bytecode": "0x608060405234801561001057600080fd5b50336000806101000a81548173ffffffffffffffffffffffffffffffffffffffff021916908373ffffffffffffffffffffffffffffffffffffffff16021790555060008054906101000a900473ffffffffffffffffffffffffffffffffffffffff1673ffffffffffffffffffffffffffffffffffffffff16600073ffffffffffffffffffffffffffffffffffffffff167f5c486528ec3e3f0ea91181cff8116f02bfa350e03b8b6f12e00765adbb5af85c60405160405180910390a361043c806100db6000396000f3fe608060405234801561001057600080fd5b506004361061004c5760003560e01c8063715018a6146100515780638da5cb5b1461005b5780638f32d59b14610079578063f2fde38b14610097575b600080fd5b6100596100b3565b005b610063610182565b6040516100709190610376565b60405180910390f35b6100816101ab565b60405161008e9190610391565b60405180910390f35b6100b160048036038101906100ac919061032b565b610202565b005b6100bb6101ab565b6100c457600080fd5b600073ffffffffffffffffffffffffffffffffffffffff1660008054906101000a900473ffffffffffffffffffffffffffffffffffffffff1673ffffffffffffffffffffffffffffffffffffffff167f5c486528ec3e3f0ea91181cff8116f02bfa350e03b8b6f12e00765adbb5af85c60405160405180910390a360008060006101000a81548173ffffffffffffffffffffffffffffffffffffffff021916908373ffffffffffffffffffffffffffffffffffffffff160217905550565b60008060009054906101000a900473ffffffffffffffffffffffffffffffffffffffff16905090565b60008060009054906101000a900473ffffffffffffffffffffffffffffffffffffffff1673ffffffffffffffffffffffffffffffffffffffff163373ffffffffffffffffffffffffffffffffffffffff1614905090565b61020a6101ab565b61021357600080fd5b61021c8161021f565b50565b600073ffffffffffffffffffffffffffffffffffffffff168173ffffffffffffffffffffffffffffffffffffffff16141561025957600080fd5b8073ffffffffffffffffffffffffffffffffffffffff1660008054906101000a900473ffffffffffffffffffffffffffffffffffffffff1673ffffffffffffffffffffffffffffffffffffffff167f5c486528ec3e3f0ea91181cff8116f02bfa350e03b8b6f12e00765adbb5af85c60405160405180910390a3806000806101000a81548173ffffffffffffffffffffffffffffffffffffffff021916908373ffffffffffffffffffffffffffffffffffffffff16021790555050565b600081359050610325816103ef565b92915050565b600060208284031215610341576103406103ea565b5b600061034f84828501610316565b91505092915050565b610361816103ac565b82525050565b610370816103be565b82525050565b600060208201905061038b6000830184610358565b92915050565b60006020820190506103a66000830184610367565b92915050565b60006103b7826103ca565b9050919050565b60008115159050919050565b600073ffffffffffffffffffffffffffffffffffffffff82169050919050565b600080fd5b6103f8816103ac565b811461040357600080fd5b5056fea26469706673582212208042fc5ac7139a06e6f643d41d7beed57c2b581e1dad51145f38d0dbc2ce53d264736f6c63430008060033",
  "immutableReferences": {},
  "source": "// SPDX-License-Identifier: MIT\r\npragma solidity >=0.8.6;\r\n\r\n\r\n/// Provides basic authorization control\r\ncontract Ownable {\r\n    address private origOwner;\r\n\r\n    // Define an Event\r\n    event TransferOwnership(address indexed oldOwner, address indexed newOwner);\r\n\r\n    /// Assign the contract to an owner\r\n    constructor () {\r\n        origOwner = msg.sender;\r\n        emit TransferOwnership(address(0), origOwner);\r\n    }\r\n\r\n    /// Look up the address of the owner\r\n    function owner() public view returns (address) {\r\n        return origOwner;\r\n    }\r\n\r\n    /// Define a function modifier 'onlyOwner'\r\n    modifier onlyOwner() {\r\n        require(isOwner());\r\n        _;\r\n    }\r\n\r\n    /// Check if the calling address is the owner of the contract\r\n    function isOwner() public view returns (bool) {\r\n        return msg.sender == origOwner;\r\n    }\r\n\r\n    /// Define a function to renounce ownerhip\r\n    function renounceOwnership() public onlyOwner {\r\n        emit TransferOwnership(origOwner, address(0));\r\n        origOwner = address(0);\r\n    }\r\n\r\n    /// Define a public function to transfer ownership\r\n    function transferOwnership(address newOwner) public onlyOwner {\r\n        _transferOwnership(newOwner);\r\n    }\r\n\r\n    /// Define an internal function to transfer ownership\r\n    function _transferOwnership(address newOwner) internal {\r\n        require(newOwner != address(0));\r\n        emit TransferOwnership(origOwner, newOwner);\r\n        origOwner = newOwner;\r\n    }\r\n}\r\n",
  "sourcePath": "D:\\blockchain-demonstration\\Udacity-Blockchain\\project-6-final\\contracts\\coffeecore\\Ownable.sol",
  "compiler": {
    "name": "solc",
    "version": "0.8.6+commit.11564f7e.Emscripten.clang"
  },
  "schemaVersion": "3.4.2",
  "updatedAt": "2021-07-28T03:26:48.723Z",
  "devdoc": {
    "kind": "dev",
    "methods": {},
    "version": 1
  },
  "userdoc": {
    "kind": "user",
    "methods": {
      "constructor": {
        "notice": "Assign the contract to an owner"
      },
      "isOwner()": {
        "notice": "Check if the calling address is the owner of the contract"
      },
      "owner()": {
        "notice": "Look up the address of the owner"
      },
      "renounceOwnership()": {
        "notice": "Define a function to renounce ownerhip"
      },
      "transferOwnership(address)": {
        "notice": "Define a public function to transfer ownership"
      }
    },
    "notice": "Provides basic authorization control",
    "version": 1
  }
}